:100000000C9443000C9455000C9455000C9455002E
:100010000C9455000C9455000C9455000C9455000C
:100020000C9455000C9455000C9455000C945500FC
:100030000C9455000C9455000C9455000C945500EC
:100040000C947C000C9455000C9455000C945500B5
:100050000C9455000C9455000C9455000C945500CC
:100060000C9455000C94550005A84CCDB2D44EB953
:100070003836A9020C50B9918688083CA6AAAA2A4B
:10008000BE000000803F11241FBECFEFD8E0DEBFCE
:10009000CDBF21E0A0E0B1E001C01D92A930B207C0
:1000A000E1F70E94C6000C948B030C9400003FB74C
:1000B000F8948091050190910601A0910701B091FB
:1000C000080126B5A89B05C02F3F19F00196A11D78
:1000D000B11D3FBFBA2FA92F982F8827BC01CD0192
:1000E000620F711D811D911D42E0660F771F881FF1
:1000F000991F4A95D1F708951F920F920FB60F924C
:1001000011242F933F938F939F93AF93BF9380912D
:10011000010190910201A0910301B091040130917D
:10012000000123E0230F2D3758F50196A11DB11DC5
:10013000209300018093010190930201A093030199
:10014000B09304018091050190910601A0910701EF
:10015000B09108010196A11DB11D809305019093F6
:100160000601A0930701B0930801BF91AF919F9141
:100170008F913F912F910F900FBE0F901F90189568
:1001800026E8230F0296A11DB11DD2CF789484B525
:10019000826084BD84B5816084BD85B5826085BD83
:1001A00085B5816085BD80916E00816080936E0011
:1001B0001092810080918100826080938100809103
:1001C00081008160809381008091800081608093B4
:1001D00080008091B10084608093B1008091B00074
:1001E00081608093B00080917A00846080937A006F
:1001F00080917A00826080937A0080917A00816099
:1002000080937A0080917A00806880937A001092BF
:10021000C1008FEF8AB900E010E0D0E0C0E0BE017D
:100220000D2E000C880B990B0E94020225E33AEF79
:100230004EE85CE30E948E020E94FB0220E030E068
:1002400040E85FE30E94650120E030E04FE753E4BF
:100250000E948E0220E030E040E05FE30E948E02C8
:100260000E94D1016BB90E9457004B015C0185E0EF
:10027000C82ED12CE12CF12C0E9457006819790965
:100280008A099B09683E734081059105A8F321E026
:10029000C21AD108E108F10888EE880E83E0981EA2
:1002A000A11CB11CC114D104E104F10429F7219669
:1002B000C93681E0D80709F0B2CF0115110509F45C
:1002C000ACCF0E940000A9CF5058BB27AA270E949C
:1002D0007C010C9454020E94460238F00E944D02A8
:1002E00020F039F49F3F19F426F40C9443020EF4E5
:1002F000E095E7FB0C943D02E92F0E94650258F35C
:10030000BA17620773078407950720F079F4A6F5FA
:100310000C9487020EF4E0950B2EBA2FA02D0B0142
:10032000B90190010C01CA01A0011124FF27591B3A
:1003300099F0593F50F4503E68F11A16F040A22F40
:10034000232F342F4427585FF3CF469537952795B1
:10035000A795F0405395C9F77EF41F16BA0B620BB0
:10036000730B840BBAF09150A1F0FF0FBB1F661FF7
:10037000771F881FC2F70EC0BA0F621F731F841F3A
:1003800048F4879577956795B795F7959E3F08F060
:10039000B0CF9395880F08F09927EE0F9795879522
:1003A00008950E946D0288F09F5798F0B92F992701
:1003B000B751B0F0E1F0660F771F881F991F1AF050
:1003C000BA95C9F714C0B13091F00E948702B1E02C
:1003D00008950C948702672F782F8827B85F39F02B
:1003E000B93FCCF3869577956795B395D9F73EF4E9
:1003F00090958095709561957F4F8F4F9F4F089591
:10040000E89409C097FB3EF49095809570956195AE
:100410007F4F8F4F9F4F9923A9F0F92F96E9BB2764
:100420009395F695879577956795B795F111F8CFE0
:10043000FAF4BB0F11F460FF1BC06F5F7F4F8F4F4B
:100440009F4F16C0882311F096E911C0772321F041
:100450009EE8872F762F05C0662371F096E8862FD9
:1004600070E060E02AF09A95660F771F881FDAF730
:10047000880F9695879597F9089597F99F6780E873
:1004800070E060E008959FEF80EC089500240A94E6
:100490001616170618060906089500240A9412165F
:1004A0001306140605060895092E0394000C11F492
:1004B000882352F0BB0F40F4BF2B11F460FF04C03F
:1004C0006F5F7F4F8F4F9F4F089557FD9058440F98
:1004D000551F59F05F3F71F04795880F97FB991FA3
:1004E00061F09F3F79F08795089512161306140660
:1004F000551FF2CF4695F1DF08C0161617061806ED
:10050000991FF1CF86957105610508940895E894C7
:10051000BB2766277727CB0197F908950E94A10290
:100520000C9454020E94460238F00E944D0220F0C2
:10053000952311F00C943D020C94430211240C9469
:1005400088020E94650270F3959FC1F3950F50E0F9
:10055000551F629FF001729FBB27F00DB11D639F75
:10056000AA27F00DB11DAA1F649F6627B00DA11D1B
:10057000661F829F2227B00DA11D621F739FB00DC1
:10058000A11D621F839FA00D611D221F749F332731
:10059000A00D611D231F849F600D211D822F762FCA
:1005A0006A2F11249F5750409AF0F1F088234AF0A7
:1005B000EE0FFF1FBB1F661F771F881F9150504013
:1005C000A9F79E3F510580F00C943D020C948802DF
:1005D0005F3FE4F3983ED4F3869577956795B7959A
:1005E000F795E7959F5FC1F7FE2B880F911D9695B4
:1005F000879597F908959F930E9405030F9007FC34
:10060000EE5F0C942E030C9443020E946D02D8F30B
:10061000E894E0E0BB279F57F0F02AED3FE049EC7B
:1006200006C0EE0FBB0F661F771F881F28F0B23A77
:1006300062077307840728F0B25A620B730B840BAE
:10064000E3959A9572F7803830F49A95BB0F661F40
:10065000771F881FD2F790480C944403EF93E0FF74
:1006600007C0A2EA2AED3FE049EC5FEB0E947C0163
:100670000E9454020F90039401FC9058E8E6F0E0C9
:100680000C9450039F3F31F0915020F4879577955B
:100690006795B795880F911D9695879597F9089559
:1006A0009F938F937F936F93FF93EF939B01AC0185
:1006B0000E948E02EF91FF910E9464032F913F915F
:1006C0004F915F910C948E02DF93CF931F930F9302
:1006D000FF92EF92DF927B018C01689406C0DA2EC4
:1006E000EF010E94A102FE01E894A59125913591A8
:1006F00045915591A6F3EF010E947C01FE019701FF
:10070000A801DA9469F7DF90EF90FF900F911F91A5
:0A071000CF91DF910895F894FFCF18
:107E0000112484B714BE81FFF0D085E080938100F7
:107E100082E08093C00088E18093C10086E0809377
:107E2000C20080E18093C4008EE0C9D0259A86E02C
:107E300020E33CEF91E0309385002093840096BBD3
:107E4000B09BFECF1D9AA8958150A9F7CC24DD24C4
:107E500088248394B5E0AB2EA1E19A2EF3E0BF2EE7
:107E6000A2D0813461F49FD0082FAFD0023811F036
:107E7000013811F484E001C083E08DD089C08234E0
:107E800011F484E103C0853419F485E0A6D080C0E4
:107E9000853579F488D0E82EFF2485D0082F10E0AE
:107EA000102F00270E291F29000F111F8ED06801E7
:107EB0006FC0863521F484E090D080E0DECF843638
:107EC00009F040C070D06FD0082F6DD080E0C81688
:107ED00080E7D80618F4F601B7BEE895C0E0D1E017
:107EE00062D089930C17E1F7F0E0CF16F0E7DF06D8
:107EF00018F0F601B7BEE89568D007B600FCFDCFD4
:107F0000A601A0E0B1E02C9130E011968C91119780
:107F100090E0982F8827822B932B1296FA010C0160
:107F200087BEE89511244E5F5F4FF1E0A038BF0790
:107F300051F7F601A7BEE89507B600FCFDCF97BE46
:107F4000E89526C08437B1F42ED02DD0F82E2BD052
:107F50003CD0F601EF2C8F010F5F1F4F84911BD097
:107F6000EA94F801C1F70894C11CD11CFA94CF0C13
:107F7000D11C0EC0853739F428D08EE10CD085E9AC
:107F80000AD08FE07ACF813511F488E018D01DD067
:107F900080E101D065CF982F8091C00085FFFCCF94
:107FA0009093C60008958091C00087FFFCCF809118
:107FB000C00084FD01C0A8958091C6000895E0E648
:107FC000F0E098E1908380830895EDDF803219F02E
:107FD00088E0F5DFFFCF84E1DECF1F93182FE3DFCA
:107FE0001150E9F7F2DF1F91089580E0E8DFEE27F6
:047FF000FF270994CA
:027FFE00040479
:0400000300007E007B
:00000001FF
